:020000041000EA
:10000000002000083B0100100D0000009D010010C1
:1000100000000000000000000000000000000000E0
:100020000000000000000000000000009901001026
:10003000000000000000000099010010990100106C
:100040009901001099010010990100109901001008
:1000500099010010990100109901001099010010F8
:1000600099010010990100109901001099010010E8
:1000700099010010990100109901001099010010D8
:100080000448054B10B5834203D0044B002B00D02D
:10009000984710BD780300087803000800000000AE
:1000A00006480749091A8B10C90FC91810B549101D
:1000B00003D0044B002B00D0984710BD78030008F4
:1000C000780300080000000010B5074C2378002BCF
:1000D00009D1FFF7D5FF054B002B02D0044800E003
:1000E00000BF0123237010BDB00300080000000012
:1000F0006C150010054B10B5002B03D004490548C2
:1001000000E000BFFFF7CCFF10BDC04600000000BC
:10011000B40300086C1500100230800803D00130D1
:100120000238FCD1C046C0467047EFF3108072B66B
:10013000704780F3108870477047FFF7FDFF72B675
:100140000F4C104DAC4209DA21686268A368043B89
:1001500002DBC858D050FAE70C34F3E70A490B4ADF
:100160000020521A02DD043A8850FCDC0848094994
:100170000860BFF34F8F00F0F1FE00F09FFEFEE736
:100180007815001090150010B0030008C80500088D
:100190000000000808ED00E0FEE7FEE700B50420DF
:1001A0007146084202D0EFF3098002E0EFF30880C5
:1001B000043000F0A7FCFEE7014B18607047C04612
:1001C000CC030008044B1B681A00BA3212881B6A61
:1001D0005043C0187047C046CC030008A02300B5A8
:1001E0001B06984226D015D8802825D00AD810287A
:1001F00024D0402824D000280BD0154809E0A420A2
:10020000C00306E08022134B520090421CD098425B
:10021000F3D100BD104B984218D0104BC0180428E1
:10022000EBD800F039FFECEA0F0305000C48F0E7CB
:100230000C48EEE70020ECE70B48EAE70B48E8E75C
:100240000B48E6E70B48E4E71800E2E7A020D7E711
:10025000FF00520006005200090000A0FFFFFF0F40
:10026000020052000300520005005200010050003D
:10027000020050000100520010B50020FFF7A2FF5D
:100280000A4B1C682300BC331B68C0180368002B92
:100290000ADB074B1868FFF7A1FF012263689A6029
:1002A0009A68002AFCD110BD0248FCE7CC03000884
:1002B000D003000802005000064B1B68BC331B68CB
:1002C000C3181B68002B03DA89B241600020704715
:1002D0000148FCE7CC03000801008A000368002BFA
:1002E00004DA89B2C2608160002070470048FCE7F0
:1002F00001008A00064B1B68BC331B68C3181B68CF
:10030000002B03DAC36800200B6070470148FCE74C
:10031000CC03000801008A00024B1A68002A00D1B1
:1003200018607047E4030008F0B52C24154E4443D0
:1003300030681F000019FF241E0A26402740124C77
:100340001B0C256807602C6A46608360BA352D88CF
:100350006F433F190761370080377F01E7190B4D65
:1003600076014761A4191F043B43641923600023ED
:100370008361059BC2610162002B01D01B888381D0
:10038000F0BDC046E4030008CC03000808100000DC
:10039000F0B50400236987B0026841680393A3683D
:1003A00004AD1732C0682B806A80039BA26A059156
:1003B0000095E16A266A676AFFF7B6FF00213B00F5
:1003C0000A0030000091FFF7AFFF2800216B00F01A
:1003D0004DFB0022AB5E002B06DB1F2213401E3AB2
:1003E0009A401300014A136007B0F0BD00E100E03D
:1003F000F0B585B003931B4B16001C682C235843A3
:100400004B4320180769E418002F27D0A569002D59
:1004100026D13B68002B23DA134B1B6834331B783F
:100420000193436801996068029300F0C5FE0122C0
:100430008A40336812049BB2134333600123FE6089
:10044000A361039B01996362029800F0B5FE01234A
:100450008B409BB2BB60280005B0F0BD034DFAE7AE
:10046000034DF8E7E4030008CC03000804028A0007
:1004700007028A0073B5002642690400D568019618
:100480002B0CB34221D01B0413601368194B006975
:100490001B68BC331B68C3181B68B34215DA01A97B
:1004A000FFF728FFB0420CD10198E26903681E0CE7
:1004B000DBB29A4205D9226A9B009B58002B00D0E0
:1004C000984731002069FFF7F7FEADB2002D09D043
:1004D00063691D6000251B68636AAB4205D09847BD
:1004E0006562A56163691B6873BDA36A002BF8D0C0
:1004F0009847F6E7CC0300082C2310B54343034A82
:100500001068C018FFF7B6FF10BDC046E40300082E
:100510001A4B70B51A680C00130033331B788342F2
:100520002AD9002928D00D681F212B000B400D422D
:1005300022D11100BA310988126A48431900104DBE
:100540008018286022685209934210D30021FFF7D7
:10055000B3FE002122002868FFF7C0FE011E04D16F
:100560002868FFF7A9FE002800D0064870BD626821
:100570009E00B1500133E5E70348F7E7CC030008DC
:10058000E803000801018A0003018A000B0010B58E
:10059000002A0DD1002914D10B4A0C4C11680A0015
:1005A000BA321288096A424352182260180010BDFC
:1005B000002906D006490B604A60FFF7A9FF030037
:1005C000F4E7044BF2E7C046CC030008E803000858
:1005D0007803000803018A00F7B51B4F04003B684D
:1005E0000E00002B2BD0DB681A68824229D9002527
:1005F0005B680193A94202D1FFF797FD05003868B7
:100600000368002B19DA1F23012223409A40640952
:10061000019BA4001C1921680A420CD0914321605F
:1006200000240021FFF748FE002E02D12800FFF72A
:1006300080FD2000FEBD054CF3E7054CF4E7034CBC
:10064000F7E7044CF5E7C046E8030008020188001C
:100650000301880004018A000C4B1B68002B11D099
:10066000DB681A6882420FD959681F234209184073
:100670001E3B8340920050581840431E9841044B43
:10068000C01870470348FCE70348FAE7E80300088E
:10069000000188000201880004018A00054B1B68E4
:1006A0001A0088321B6812689B181868000AC0B2CA
:1006B0007047C046CC030008044B1B681A00883200
:1006C0001B6812689B181868000E7047CC0300085E
:1006D000034BE0308000C0588006800F7047C04652
:1006E00000002640024B18694007C00F7047C04603
:1006F00000002740A6220549D2008B580220DB4388
:100700009B0702D0012388581840704700002640FC
:1007100010B5FFF7EFFF0023022801D1014B1B6842
:10072000180010BDF0030008084A83009B18D0226F
:100730009200985807221040042806D1C022920047
:100740009B581F22FC30134018437047000026407E
:1007500010B5FFF7E9FF88235B0098421CD00BD847
:10076000012813D0022814D0431E9841104B404258
:100770001840104BC01810BD1223FF33984210D000
:100780001423FF33984210D00020F4E70A4B186876
:10079000F1E7FFF7BDFFEEE7084A094BD058C00F5D
:1007A00001E0FFF79FFFC003E5E7044A054BF5E7CB
:1007B00000EE85FF00127A00EC03000800002640DE
:1007C0000C0500003C050000B023154ADB00D3589F
:1007D00010B59903DB01DB0F890BC371114B01606D
:1007E000D3580F24D904DB01DB0D0381B123DB00D7
:1007F000D358C90C81801900214081721909214008
:10080000C172D9029B009B0F8373074BC90CD3584D
:1008100081815A05DB01520FDB0D8271038210BD0D
:1008200000002640840500008C0500008030034B4A
:10083000FF308000C058C00F7047C04600002640FF
:100840000F4B421E1B683F331B78934216D98030F2
:100850007F220C4BFF308000C3581F201A400A70C3
:100860001A0A02404A701A0C02408A701A01C240E9
:1008700000209B009B0FCA700B7170470248FCE779
:10088000CC0300080000264001004A00F0B589B002
:1008900003AD2800FFF798FFB0230026164ADB00BF
:1008A000D358B34224DAAB7B022B21D0AC88B442BC
:1008B0001ED03000ED79039FFFF74AFF220033007E
:1008C00031000190681C00F09DFC0C000500330015
:1008D0003A003100019800F095FCE6076A083243BF
:1008E0006308801859412A00230000F06BFC0600C1
:1008F000300009B0F0BDC04600002640F7B5234BDC
:1009000006001B683F331B78002B08D000283BD023
:10091000834204D36946FFF793FF041E01D00026EB
:1009200032E03000FFF782FF2300002805D06B463D
:100930001C79023C23005A1E93416A46177854786A
:100940009578002BEBD0002CE9D0002DE7D03000BB
:10095000FFF7FEFE002306002A002000190000F029
:1009600051FC00230C0005003A003000190000F093
:1009700049FCE6076A0832436308801859412A0097
:10098000230000F01FFC06003000FEBDCC03000871
:1009900010B5041E04D1FFF779FF002806D008E047
:1009A000064B1B683F331B78834203D22000FFF7BE
:1009B000CFFE10BDFFF7A2FFEFE7C046CC03000853
:1009C00070B50500FFF784FEE035074BAD0004006D
:1009D000E8580F231840FFF7DBFF0123A3405B0813
:1009E0001818E04070BDC04600002640144B30B5DA
:1009F0001B6807241A002C3212781F2A15D8820887
:100A00001500A5432C1E0FD103342040A040814087
:100A10001B68920020339B180A00FF2181401C684C
:100A2000624011406140196030BD1A688023204047
:100A30001B06034380208001091889008B50F3E7CF
:100A4000CC030008064B10B59A68064C10308300A2
:100A5000A24202D19858995010BD034AD058FBE7E2
:100A600000ED00E00000000800000010F8B50700ED
:100A70000E0000283AD00023C45E002C28DB4188F9
:100A80002000FFF7B3FF0025FF22032094462040FB
:100A90007968C0006746824089013940D24381406D
:100AA000A3B2002C16DB1248A3089B001B18C02021
:100AB00080001F583A400A431A500E4B9A680E4B5A
:100AC0009A4203D131002000FFF7BCFF2800F8BD97
:100AD0000A4DD9E70F200340083B06489B089B00BE
:100AE0001B18D86902400A43DA61E6E7034DEDE7D7
:100AF00000E100E000ED00E0000000080100560009
:100B0000FEE7000002680A4B10B51A6042685A609E
:100B100082689A60C268DA6002691A6142695A6141
:100B200082699A61C269DA61FFF7EAFF10BDC046C7
:100B300090030008B0235B055A782120002A01D0D9
:100B40005878C0B27047B0235B059A89002A02D05A
:100B5000988980B2704780204000FBE7254B73B531
:100B600086000D00F458042901D0012925D1002068
:100B70000EE0A3682B420AD1E36829001A685B687B
:100B8000684601930092236898471B4B1C60646978
:100B9000002C0AD0194B9842EBD1012DE9D1164A0D
:100BA000174B126815489A5176BD012DFCD1134B95
:100BB0009842F4D0124B9C51F6E7022914D026003B
:100BC0006469002CFBD10020002EEDD0B3682B42CD
:100BD00008D1F36829001A685B686846019300929F
:100BE000336898473669EFE7034B1B68181EDBD064
:100BF0001E69E8E73404000830040008FF004200E2
:100C00001C0400081A4B1B68190088311A6809680F
:100C100051180968016219008C310968521812686C
:100C200042621A0046321278002A1FD09A68E032D7
:100C30001268D2061AD5F222DB68D2019A580260F5
:100C4000F022D2019A5842600A4A9A5882600A4AAF
:100C50009A58C260094A9A580261094A9A584261F0
:100C6000084A9A588261084A9B58C3617047C04637
:100C7000CC03000804780000087800000C7800001D
:100C80001078000014780000187800001A4B1B68D8
:100C90001900883109681A685218016A1160190030
:100CA0008C3109681A685218416A11601A0046327C
:100CB0001278002A1ED09A68E0321268D20619D53E
:100CC000F0224168DB68D201995081680B4A995043
:100CD000C1680B4A995001690A4A995041690A4A08
:100CE00099508169094A9950C169094A9950016826
:100CF000E83299507047C046CC03000804780000E1
:100D0000087800000C7800001078000014780000CB
:100D100018780000F7B50500FFF70CFF564F01905B
:100D20007B68002B00D06FE0FFF7FFF97B68009035
:100D3000002B00D07CE0514B07271C682300BA33FE
:100D40001B885F43236AFB181A68002AFCDADB68F9
:100D5000DA001ED51B0F4A481E07FFF753FF22007B
:100D600088321268236847499B181A6801980A401C
:100D7000212862D19020000102431A6022008C32A7
:100D8000126823689B181A680A40104318603C4B8D
:100D90003343802292051343226A0024BF18FB606C
:100DA0007C607B68FFF7CFFE8023344F5B00984266
:100DB00046D1280000F058FB3F6807223B00BA33B9
:100DC0001E883B6A5643F3181A68002AFCDADD686D
:100DD000EB0003D528010009FFF758FF00222A4B3A
:100DE00000981D403B6AF318DD605A60FFF7A1F9D7
:100DF000002C10D1204B5B68002B03D00821012070
:100E0000FFF7ACFE2000FEBD01210800FFF7A6FEA3
:100E1000041E00D188E7184B5B68002B03D0022129
:100E20000120FFF79BFE194B9C42EBD0184CE9E7E1
:100E300004210120FFF792FE7DE7802040009BE720
:100E40003B681A00BC32196A1268521811680029EE
:100E500010DBBA331B889B181B68002B0ADB0423AA
:100E60000C4A11690B431361012D01D030BFA3E778
:100E700020BFA1E7054C9FE734040008CC0300081D
:100E8000F4030008FF00FFFFFFFFFFDF0500420043
:100E9000FF00420000ED00E0C02280200649520021
:100EA0008B58C0059B009B0803438B5080238858B8
:100EB0001B0603438B5070470000264010B562B6F6
:100EC000034800F0C3F80020FFF724FFFBE7C0460B
:100ED0000020001010B50020FFF70EFB10BD70477A
:100EE00070B50020FFF76CFD041E28D0144B18606D
:100EF000FFF7E2FB411C200000F0D8F8114B040082
:100F00001860FFF7CBFB411C200000F0CFF8040075
:100F10000D4B013C18600D49200000F0C7F8FA2184
:100F20000B4D013028708900200000F0BFF8094DFA
:100F3000013028600020FFF743FD074B186070BDAB
:100F4000880000088C0000088000000840420F0064
:100F500094000008900000088400000810B52048A4
:100F6000FFF72AF9B022E02130201E4CD200A3580E
:100F700089005B005B08A350635883436350802360
:100F80005B04A350184B194AE250A022043392018B
:100F9000E250FF22164BE250FFF77EFFC0220121F4
:100FA0005200A3588B43A350FFF799FFFFF798FF18
:100FB000104B03201A681300BA33198807234B43D8
:100FC000126A80219B180022DA605A600A4AFFF7F1
:100FD000DDFA0A48FFF7A0F90948FFF7D9F910BD73
:100FE0007814001000002640840500000100020073
:100FF0008C050000CC0300088003000848040008AA
:10100000381500109023034A5B01D0580323184081
:101010007047C0460000204010B59024FFF785F8C7
:10102000074B64011959074A1140074A0A431A51EC
:10103000102259681142FCD0FFF77BF810BDC04662
:1010400000002040FCFF00000100FA05F8B59026E2
:101050000E4C76010700FFF768F8A3590500DB4343
:101060009B0701D1FFF7D8FF80239B00E750A259CF
:10107000074B1A40074B1343A351102362681A42CF
:10108000FCD02800FFF755F8F8BDC046000020400E
:10109000FCFF00000300FA0502B47146490849004C
:1010A000095649008E4402BC7047C04600224308DE
:1010B0008B4274D303098B425FD3030A8B4244D320
:1010C000030B8B4228D3030C8B420DD3FF22090262
:1010D00012BA030C8B4202D31212090265D0030B21
:1010E0008B4219D300E0090AC30B8B4201D3CB0317
:1010F000C01A5241830B8B4201D38B03C01A524159
:10110000430B8B4201D34B03C01A5241030B8B425A
:1011100001D30B03C01A5241C30A8B4201D3CB0245
:10112000C01A5241830A8B4201D38B02C01A52412A
:10113000430A8B4201D34B02C01A5241030A8B422D
:1011400001D30B02C01A5241CDD2C3098B4201D345
:10115000CB01C01A524183098B4201D38B01C01AC3
:10116000524143098B4201D34B01C01A524103093A
:101170008B4201D30B01C01A5241C3088B4201D3E9
:10118000CB00C01A524183088B4201D38B00C01A96
:10119000524143088B4201D34B00C01A5241411ABD
:1011A00000D20146524110467047FFE701B50020CA
:1011B00000F006F802BDC0460029F7D076E7704778
:1011C0007047C046002B11D1002A0FD1002900D151
:1011D000002802D00021C943080007B4024802A138
:1011E0004018029003BDC046D9FFFFFF03B4684614
:1011F00001B5029800F034F8019B9E4602B00CBC89
:101200007047C046F0B5CE469946030C9C46130481
:1012100047461B0C1D000E0061460404240C80B5DB
:101220000700100C4B436543414360432C0CC0182E
:1012300020188C46834203D980235B029846C4441D
:10124000494679435643030C2D042D0C89196344F8
:1012500000044019C918C0BCB946B046F0BDC0462C
:10126000F0B557464E464546DE46E0B504000D0053
:101270009246994683B08B4230D82DD0494650468D
:1012800000F0D8F829000600200000F0D3F8331A47
:101290009846203B34D49B4653465A469340424698
:1012A0001F00534693401E00AF423BD8AF4200D1CF
:1012B00079E05B46A41BBD41002B00DA76E00022FA
:1012C00000230092019301235A4693400193012386
:1012D00042469340009329E08242CFD90022002366
:1012E000009201930C9B002B01D01C605D60009864
:1012F000019903B0F0BCBB46B246A946A046F0BD7A
:1013000042469B4620239B1A5246DA404146130030
:101310004A468A40170042461F43534693401E00E8
:10132000AF42C3D900220023009201934346002B11
:10133000D8D0FB0772081A4346467B080EE0AB4242
:1013400001D1A2420CD8A41A9D41012024196D415B
:101350000021013E24184D41002E06D0AB42EED9AB
:10136000013E24196D41002EF8D1009801995B4689
:1013700000196941002B24DB2B005A464446D34018
:101380002A00E2401C005B461500002B2ADB2600E9
:101390009E40330026004746BE403200801A9941E5
:1013A000009001919EE7A342BCD882E742462023E9
:1013B00000219B1A0022009101920122DA40019241
:1013C00085E7424620239B1A2A0046469A4023007E
:1013D000F340444613432A00E2401C005B461500DC
:1013E000002BD4DA42462F002023260097409B1A78
:1013F000DE403B003343CDE71C2101231B04984210
:1014000001D3000C10391B0A984201D3000A083995
:101410001B09984201D30009043902A2105C40184C
:101420007047C046040302020101010100000000F0
:101430000000000010B5002903D1FFF7DDFF2030C8
:1014400002E00800FFF7D8FF10BDC046F8B5C0465F
:10145000F8BC08BC9E467047F8B5C046F8BC08BC4E
:101460009E4670470000000001B40248844601BC5B
:10147000604700BF610200080000204000002440D7
:101480000000004000000000000023400000304049
:101490000000314000009F4000002240000010404A
:1014A00000009D402020202020101010101D1D80C5
:1014B00017007500FF030602060036041020000026
:1014C0007FC0000000040000000000000019324B43
:1014D000647D0000000000804000080B1000000048
:1014E0000000FF012002001F00800004FF08101808
:1014F000001000140018001C4044484C500000002C
:1015000008100000080000000400000004100000A3
:10151000001200000421000000210000001600005D
:1015200040114002C41300138013A013401388130A
:10153000A81320001C0000000300000001000000B0
:10154000010000000000000005036000040000002E
:10155000010000000000000001000000060460001F
:1015600008000000A8050008D50E001000000000CB
:10157000F0FCFF7F010000000000001000000008E8
:10158000800000009815001080000008F80200009C
:10159000B00300081802000000093D0000093D00EA
:1015A00000127A0000093D00A00F000004000000B6
:1015B000F5000010C900001080B230B5C40000284A
:1015C00020D0114B18680300BA331A8807235343FD
:1015D000026A9A1811680029FCDA3E210B4A062596
:1015E00011600B4A0B491160A3210B4AC9005550E9
:1015F0000A495450006A54581B1800205860535828
:10160000002BFCDA30BDC046CC03000804012640A4
:10161000080126401E1F0000000026401C05000097
:1016200010B54378FF2B11D100F002F9040003201C
:1016300000F0E6F80121C3685B681A680A431A6083
:101640001A680A42FCD1200000F01AF910BDF7B563
:1016500007000020019100F0D3F83E4C05002368FC
:101660001A005033BC3216681B788619002B59D0EB
:1016700000F0EEF8009003281AD000F0D9F8364AAE
:10168000364B0400D358002B3CDA01212800344AA1
:1016900000F0BEF8002835D10198FFF78DFF002F2C
:1016A0003ED03368002BFCDB00F0DAF805002AE0BE
:1016B000062000F0A5F82368BC331B68C018036837
:1016C000002B02DA274D2800FEBD002000F0B8F8FC
:1016D000254B9842F6D00023244A190001201268B5
:1016E00000F09EF8041EEDD1002000F0A9F81E4A7B
:1016F0001F4B904203D09C42E4D00134F4E79C425B
:10170000BBD1DFE7174D009B032B05D10121002042
:1017100000F0AEF80028F9D1200000F0B1F8D2E7CF
:10172000144DF0E700F084F8012104000C4A280071
:1017300000F06EF8002808D1002F08D03368002B85
:10174000FCDB00F08DF80500E6E7064DE4E7094D07
:10175000E2E7C046CC030008000026401C0500005C
:10176000D00300080500520001018800E0030008D2
:10177000F049020001005000184BF7B51B681849EA
:101780005A6804230C6923430B61012824D030BF1D
:101790001300FC331B69002B1DD1A324114B1248ED
:1017A0001249E40007681E590D680195104D056047
:1017B00006251D513E240C600E4C3E351D511D5911
:1017C000002DFCDA0C4CFC321461A322D20007601D
:1017D0009E50019B0B60F7BD20BFD9E7CC030008EA
:1017E00000ED00E0000026400801264004012640EC
:1017F0001E1F00001C050000AAAAAAAA00000000E3
:1018000001B40248844601BC604700BFC501001016
:1018100001B40248844601BC604700BFDD020010ED
:1018200001B40248844601BC604700BFF1030010C8
:1018300001B40248844601BC604700BF2B01001080
:1018400001B40248844601BC604700BF590600103D
:1018500001B40248844601BC604700BF0510001077
:1018600001B40248844601BC604700BF7902001001
:1018700001B40248844601BC604700BFD90500108E
:1018800001B40248844601BC604700BF3301001028
:101890000000000000000000000000000000000048
:0818A000000000000000000040
:1020000000F80F08252300100D0000009923001090
:10201000992300109923001099230010000000005C
:10202000000000000000000000000000B13C0010B3
:102030009523001000000000513D0010513C00109D
:102040009523001095230010952300109523001070
:102050009523001095230010952300109523001060
:102060009523001095230010952300109523001050
:102070009523001095230010952300109523001040
:1022E00010B5054C237833B9044B13B10448AFF350
:1022F00000800123237010BD3C8D00080000000009
:1023000060D5041008B5034B1BB103490348AFF374
:10231000008008BD00000000408D000860D504105A
:1023200070477047FFF7FCFF72B6144C144DAC4277
:1023300009DA21686268A368043BA2BFC858D0507C
:10234000FAE70C34F3E70F490F4A00209142BCBF73
:1023500041F8040BFAE70D480D490860BFF34F8FB1
:1023600000F08CFC00F070FC01F0CCFA45F04AFC67
:1023700000F0C2FF45F012FCFEE700006CD504102F
:1023800084D504103C8D00088CCA00080020000889
:1023900008ED00E0FEE7FEE700B5042071460842C4
:1023A00002D0EFF3098002E0EFF3088004300AF076
:1023B0003BF8FEE750B1C2695AB1026A62B1436AA2
:1023C0000BB1002070474FF0FF3070474FF0FF30E7
:1023D00070474FF0FF3070474FF0FF3070470222D8
:1023E000C271082343711021017103218171C273ED
:1023F0004373142303730023837343688360C368A8
:10240000036170474B790C2B0BD84A7A93420BD05F
:10241000027802F0F00203F00F0313430370002070
:1024200070476FF00300704700207047CB79072B8F
:102430000CD8CA7A93420CD0027802F08F021B01AA
:1024400003F0700313430370002070476FF0030024
:102450007047002070478B790C2B0BD88A7A9342F7
:102460000BD0027802F0F00203F00F031343037065
:10247000002070476FF003007047002070474B7BCF
:102480000D2B0BD84A7C93420BD0027802F0F0025D
:1024900003F00F0313430370002070476FF0030035
:1024A000704700207047CB7B022B09D8027802F0DE
:1024B000CF021B0103F03003134303700020704769
:1024C0006FF0030070478B7B042B0BD88A7C934200
:1024D0000BD0027802F0F80203F0070313430370F5
:1024E000002070476FF003007047002070478BB1E9
:1024F00010B59C46DC6984B192B19B78012B06D063
:1025000013460A4601469CF80100A04710BD40F062
:102510008000F5E74FF0FF3070474FF0FF30F5E7F0
:102520006FF00B00F2E738B504460D460B46022269
:1025300001464020FFF7DBFF00B138BD29462046A9
:10254000FFF760FF0028F8D129462046FFF76EFF0D
:102550000028F2D12946601CFFF77DFFEDE738B572
:1025600004460D460B46022201464220FFF7BFFFFC
:1025700000B138BD29462046FFF781FF0028F8D179
:1025800029462046FFF78FFF0028F2D12946601C1C
:10259000FFF799FFEDE700B583B0034600228DF801
:1025A000072001220DF107010220FFF7A0FF9DF88F
:1025B00007305B088DF8073003F00F038DF8073004
:1025C000012B08D0022B09D0032B0AD0072B0BD0EC
:1025D00003B05DF804FB6FF00500F9E76FF006004B
:1025E000F6E76FF00700F3E76FF00800F0E730B5AB
:1025F00085B005460C4613460021019102918DF8E5
:102600000C10821D01A91220FFF771FF58BB024672
:102610009DF805301B021BB29DF804100B4323806C
:102620009DF807301B021BB29DF806100B43638018
:102630009DF809301B021BB29DF808100B43A380C4
:10264000032D04D00023A360104605B030BD9DF8D3
:102650000A109DF80B009DF80C301B0443EA002380
:102660000B43A360F0E76FF00102EDE710B584B013
:102670000C4613460021009101910291CDF80B10F8
:1026800020BB062269460C20FFF731FF02460028D6
:1026900048D19DF801301B021BB29DF800100B437E
:1026A00023809DF803301B021BB29DF802100B43E0
:1026B00063809DF805301B021BB29DF804100B438C
:1026C000A3800023A360104604B010BD02460C3264
:1026D00069460C20FFF70BFF024630BB9DF8013026
:1026E0001B021BB29DF800100B4323809DF80330A2
:1026F0001B021BB29DF802100B4363809DF805304E
:102700001B021BB29DF804100B43A3809DF80C1014
:102710009DF80D009DF80E301B0443EA00230B4387
:10272000A360D0E76FF00102CDE76FF00102CAE7C6
:1027300070B584B006460D46144600220092019200
:102740000292CDF80B2000F10C0269460C20FFF735
:10275000CEFE002845D102469DF801301B021BB277
:102760009DF800100B4323809DF803301B021BB221
:102770009DF802100B4363809DF805301B021BB2CD
:102780009DF804100B43A3809DF807301B021BB279
:102790009DF806100B432B809DF809301B021BB2DD
:1027A0009DF808100B436B809DF80B301B021BB289
:1027B0009DF80A100B43AB80032E05D00023AB60BD
:1027C000A360104604B070BD9DF80C109DF80D007C
:1027D0009DF80E301B0443EA00230B43AB60A3605B
:1027E000EFE76FF00102ECE72DE9F843002B37D05B
:1027F0000546894690461E461C6A002C33D0002AA6
:1028000034D09B78012B08D0337A112B08D0337C3D
:10281000152B05D0002427461EE000F07F05F3E7C6
:1028200043464A4629467078A0470746736A012006
:102830009847F7B93846BDE8F883376A012309EBB2
:10284000040229467078B84707460135EDB2736A2D
:10285000012098470134E4B2A3B24345EDD3E8E741
:102860004FF0FF37E6E74FF0FF37E3E76FF00B0776
:10287000E0E76FF00107DDE710B582B00446002302
:10288000ADF80430014601A8FFF74DFE08B102B0D3
:1028900010BD2346012201A94020FFF7A5FF002813
:1028A000F5D163796372E379E372234601220DF176
:1028B00005014120FFF798FF0028E8D1A379A37212
:1028C000E5E710B582B004460023ADF804300146B8
:1028D00001A8FFF744FE08B102B010BD2346012253
:1028E00001A94220FFF780FF0028F5D1637B6374C4
:1028F000E37BE374234601220DF105014320FFF73A
:1029000073FF0028E8D1A37BA374E5E730B583B05B
:1029100004460D4600238DF807300B460122014680
:102920004020FFF7E4FD38B92B79122B06D022782E
:1029300094F90030002B15DB03B030BD237863F031
:102940007F0323702B46012221464020FFF74CFFD6
:102950000028F1D12B4602220DF107015820FFF784
:1029600043FFE9E702F07F0222702B460122214655
:102970004020FFF739FFDFE730B583B000238DF843
:1029800007300279A2F11003DBB2022B20D80446F3
:10299000037A9A4203D10025284603B030BD014690
:1029A0000DF10700FFF7B2FF05460028F4D12346DA
:1029B0000122211D7E20FFF717FF0546237A102BE9
:1029C00002D023792372E7E7636A05209847F8E786
:1029D0006FF00305E0E738B50446027BA2F114036B
:1029E000DBB2012B01D9172A20D1237C9A4202D1D4
:1029F0000025284638BD2346012204F10C017E2023
:102A0000FFF7F2FE0546237C142B04D0172B06D0CB
:102A1000237B2374EDE7636A51209847F8E7237B13
:102A2000152BF5D1636A0A209847F1E76FF003058B
:102A3000DFE730B583B0B6238DF8073010B3054615
:102A4000436A13B3034601220DF107017E20FFF70D
:102A5000CBFE04466B6A0120984714B9AB78012B72
:102A600003D05CB1204603B030BD2B4601220DF1EE
:102A700007017F20FFF73BFD0446F2E72846FFF7FA
:102A8000AEFCEFE74FF0FF34ECE74FF0FF34E9E73F
:102A900030B583B00446FFF78DFC10B9A378012B45
:102AA00004D008BB0023237003220EE0234601223A
:102AB0000DF107017F20FFF71AFDF2E723460122FF
:102AC00021460020FFF713FD2A46531EDDB212B146
:102AD0002378D82BF2D148B92378D82B09D1FF23FA
:102AE000E3702046FFF7A5FF03B030BD6FF0020092
:102AF000FAE76FF00200F7E758B110B50446436AF1
:102B000053B1FFF739FF00B110BD2046FFF763FF57
:102B1000FAE74FF0FF3070474FF0FF30F4E7A8B10D
:102B200010B50446436AA3B1FFF7A6FE00B110BD7D
:102B30002046FFF7C6FE0028F9D12046FFF7DCFF4C
:102B40000028F4D12046FFF726FDF0E74FF0FF30D4
:102B500070474FF0FF30EAE710B584461446C0F3E3
:102B600080000CF003021CF0040F00D00320CBB156
:102B7000022A0BD0032A0FD0012A02D06FF00400E2
:102B800010BD91B11A46FFF732FDF9E784B11A463C
:102B90002146FFF76BFDF3E76CB179B12246FFF7F1
:102BA000C7FDEDE74FF0FF30EAE74FF0FF30E7E712
:102BB0004FF0FF30E4E74FF0FF30E1E74FF0FF3038
:102BC000DEE708B5012007F04DF908BD70470000A9
:102BD00010B5002009F016FB00B910BD0446124BD9
:102BE000186008F019FD0130B4FBF0F00F4B1860CD
:102BF00008F02AFD0130B4FBF0F40D4B1C60013CE1
:102C00000C4BA3FB04239B0C01330B4A13700B4B9F
:102C1000A3FB0434A4090134094B1C60002009F013
:102C2000F1FA084B1860D8E7EC220008F0220008FF
:102C3000E422000883DE1B43F8220008D34D621013
:102C4000F4220008E822000808B5094806F0B0FCA4
:102C5000FFF7BCFFFFF7BCFF00221146032007F07F
:102C60005DF9044806F0AAFF034806F0FFFF08BD1F
:102C7000DCBA0410588D0008A8AB0410EFF31081E3
:102C800072B6074AD2F8883043F47003C2F888302D
:102C9000BFF34F8FBFF36F8F81F31088704700BF72
:102CA00000ED00E008B500F0CBF800F00FF800F000
:102CB000BDF800F047F800F04DF808BD08B500F089
:102CC000BDF900F02DF800F05FF808BD08B50F2140
:102CD000012008F09FFB00220F21012008F00EFACE
:102CE0000F21012008F054FB0021084608F092FB58
:102CF00000221146104608F001FA0021084608F0AB
:102D000047FB0721002008F085FB00220721104621
:102D100008F0F4F90721002008F03AFB08BD000094
:102D200008B5054803F026FB044803F023FB0448DC
:102D300003F020FB08BD00BFE4AB0410DCAB0410C3
:102D4000E0AB041008B5002211462F2008F0E4FA89
:102D500008BD000010B5084C084A0421204606F0C2
:102D600043FE074A0621204606F03EFE054A07219B
:102D7000204606F039FE10BD0003314084AC04103B
:102D80004CAC041014AC041008B5184803F0F2FA67
:102D9000174803F0EFFA174803F0ECFA164803F06F
:102DA000E9FA164803F0E6FA154803F0E3FA154885
:102DB00003F0E0FA144803F0DDFA144803F0DAFAFD
:102DC000134803F0D7FA134803F0D4FA124803F07B
:102DD000D1FA124803F0CEFA114803F0CBFA1148A9
:102DE00003F0C8FA104803F0C5FA08BDBCAC0410E3
:102DF000C0AC0410FCAB0410B8AC041080AC0410E0
:102E000048AC0410E8AB0410ECAB0410F0AB0410B9
:102E1000F4AB0410F8AB041000AC041004AC0410C4
:102E200008AC04100CAC041010AC0410024B33229C
:102E30009A601A61704700BF00203040FEE7000032
:102E400030B583B007220021322008F065FA9621C0
:102E5000002009F03BFB09F0CBFAC0B96F4BD3F867
:102E6000004F04F03F0409F0B3FA30B1012009F03B
:102E7000A5FA6B4B9B6C002B26DB684BC3F8004F0D
:102E800008F0C8FC08F0BCFC012008F0D7FC0120C9
:102E90000AF072F80AF018F80AF0F2F80AF0DCF812
:102EA00008F0B4FD0021084608F052FC002008F0AC
:102EB000BDFB012008F0A2FB002008F027FB594BC6
:102EC0001B6893F83F4006E00620FFF7B7FF204657
:102ED00008F0D8FE013C002CF9D10021012008F0B7
:102EE000E1FC002008F022FC00287BD000210846ED
:102EF00008F0D8FC0021084608F0F8FB4A4D0024F1
:102F00000094234622462146284606F089FC009478
:102F1000234622460121284606F082FC434808F059
:102F200051FC00286AD1012008F050FB002008F075
:102F30007DFB002008F062FB002008F0E7FA00218A
:102F4000012008F0AFFC0021084608F0ABFC00218E
:102F5000022008F0A7FC0021032008F0A3FC0021B8
:102F6000042008F09FFC0021052008F09BFC30485D
:102F700008F066FD002844D12E4808F011FE002814
:102F800042D10021084608F0B1FB0021084608F0B4
:102F9000DFFB2949012008F09BFEC0BB42F2107103
:102FA000012008F023FFA8BB08F006FB002008F072
:102FB000D7FA002008F0EAFA08F0F4FA00210846EF
:102FC0000AF0BEF8012008F0BBFA08F019FC012055
:102FD00008F034FC6421002009F078FAFFF7F8FDCE
:102FE00003B030BD08F08CFC40F2111398427FF41E
:102FF0007DAF0121002008F079FB77E70520FFF77E
:103000001DFF0420FFF71AFF0420FFF717FF03201E
:10301000FFF714FF0320FFF711FF00BF00F0274068
:103020000000274050B500080000314040420F002A
:10303000C4AC0410400D0300F0AC041008B50948FE
:1030400003F098F9084803F095F9084803F092F95D
:10305000074803F08FF9074803F08CF9064803F09E
:1030600089F908BDD8AC0410DCAC0410E0AC041045
:10307000E4AC0410E8AC0410ECAC041008B504484F
:1030800009F0A6FB08B1002008BD0248FCE700BF1C
:10309000FC2200080000020610B503F069F904469E
:1030A00038B154B1FFF7FEFDFFF708FE5CB12046D2
:1030B00010BD04F071FF0446F3E740F6E441002040
:1030C00005F028F8EEE7FFF7D9FF0446EFE784465E
:1030D000A8B1B1B1BAB1C3B1B2FBF3F0CCF81800EA
:1030E000A8B1CCF80010CCF80420CCF808300020AF
:1030F000CCF80C00CCF81000CCF81400704702207B
:10310000704702207047022070470220704702205B
:10311000704770B504460E461546836942699B1A8E
:10312000AB4204D2042070BD6369013363619DB179
:1031300023682069A268314602FB003044F0AAFDF2
:10314000A3681E44013D236901332361A2699342B0
:10315000EAD300232361E7E72846E4E770B5044695
:103160000E4615464369934204D2052070BD63693B
:10317000013B63619DB12368E168A26802FB0131F4
:10318000304644F087FDA3681E44013DE3680133E7
:10319000E360A2699342EAD30023E360E7E72846AD
:1031A000E4E7000000B595B04C220B4901A844F0BB
:1031B00071FD0A4A002101A80AF0C8FB10B115B040
:1031C0005DF804FB064A0749044B18680AF0A2FBA5
:1031D00000F030FAF3E700BF24AD0410E08E0008E1
:1031E000E48E0008E88E00082DE9F04FADF5955DFE
:1031F00083B00DF5D3653B4C04F14C030FCB85E850
:103200000F000DF5D16504F15C030FCB85E80F00CD
:1032100044E0DFED350A9FED350A062280210DF5E9
:10322000D56000F032F9324845F04AFB002433E023
:1032300004EB44030DF5D56202EBC3035D68D3F8DC
:103240000880D3F80C90D3F810A0D3F814B0186805
:1032500043F0E2FD06460F46584643F0DDFDCDE95A
:103260000801504643F0D8FDCDE90601484643F039
:10327000D3FDCDE90401404643F0CEFDCDE9020186
:10328000284643F0C9FDCDE9000132463B461948C6
:1032900045F090FA0134A4B27F2CC9D90BA800F0F4
:1032A00071F94FF440720DF5D5610BA800F02BF9C0
:1032B0000024052CADD803230DF5D1620DF5D361A3
:1032C0000DF22C6000F05EF8062300932346802266
:1032D0000DF5D5610DF22C6000F076F80134A4B242
:1032E000E7E700BF24AD041000000047000000C75E
:1032F000F8AC041008AD041000B583B0114B0622E1
:103300001A60FFF7C9FE00B101BE62B64FF4E133A7
:103310000093FF231A46282129200AF015F90A48AC
:1033200045F048FA094845F0CBFA00230193022200
:1033300000924FF480520649064801F0A0FB01F0CC
:10334000D3FBFEE7EC8E000890AD04109CAD04109A
:10335000E4AD0410E931001008B5FFF723FF00B910
:1033600008BDBFF34F8F0549CA6802F4E062044B01
:103370001343CB60BFF34F8F00BFFDE700ED00E0CC
:103380000400FA05016042608365092B01DC00221C
:1033900014E008B50B4845F093FA4FF0FF3008BD34
:1033A000911C00EB81014FF0000CC1F800C002F14C
:1033B0000C0100EB8101C1F800C001329A42EFDD3F
:1033C00000207047F4AD04102DE9F04F83B0804623
:1033D000894692460193BDF830B000F10802864656
:1033E0005EF8305B4668846D002738E005EB8300AB
:1033F000D0ED007A02EB830090ED007A67EE877AD9
:1034000091ED007A77EE877AC1ED007A06EB8300C2
:1034100090ED007A0EEB8300D0ED006A27EE267A5D
:1034200077EEC77AC1ED007A0133A342DEDD0B6887
:10343000C8F83030631E0FE0591C02EB810002EB2C
:10344000830CDCF800C0C0F800C00EEB81010EEB6D
:10345000830000680860013B002BEDDA0137574517
:1034600010DA019B07FB0B3109EB8101D1ED007AEA
:10347000C8ED027A95ED007A67EE877AC1ED007AA1
:103480000123D2E703B0BDE8F08F00B570EEC07A3B
:10349000B0EE007AC7EE276A4FF0000E2DE0F4EE92
:1034A000C07AF1EE10FA19D5FFEE007ACCED007A71
:1034B0000133DBB21FFA83FC94451AD202FB0E3CA7
:1034C00000EB8C0CDCED007AF4EEE07AF1EE10FA11
:1034D000E5DDF7EE007ACCED007AE9E770EEE77A09
:1034E00067EEA67AB7EE007A77EE677ACCED007ACF
:1034F000DEE70EF1010E1FFA8EFE8E4501D200238B
:10350000D8E75DF804FB00230BE030F913C007EEA9
:1035100090CA01EB830CF8EEE77ACCED007A013328
:103520009BB29342F1D3704738B5114911480AF064
:1035300023F900B101BE0E4D0F4C01222946204651
:10354000FFF7E7FD012205F10C012046FFF7E1FD41
:103550000A4A136801331360802B00D038BD13462C
:1035600000221A600421064800F06EF9F6E700BF59
:10357000F08E00080C8F00085C8F0008088F000890
:10358000588F000810B582B004464FF0FF33009307
:1035900001231A460649074800F084F94FF4807267
:1035A00021460548FFF7DAFD002002B010BD00BF3C
:1035B00018230008588F00085C8F000830B587B0CA
:1035C000184B0FCB06AC04E90F000022FF21164870
:1035D00005F0E4F8034610B1184607B030BD02A963
:1035E000114805F02BF903460028F5D10F490E4884
:1035F00005F040F803460028EED10B4C04F1080515
:1036000000220B49284604F0B5FE01220092032354
:103610002946204604F0EEFE204605F0E9F8034670
:10362000DAE700BF14AE0410789B0008A086010002
:103630002935001010B586B006234FF440621E49AC
:103640001E48FFF744FD00230493039308220292CF
:103650000193FF230093622361226021184804F044
:1036600001FA044610B1204606B010BD15491448B1
:1036700004F0FEF804460028F5D10123062219467D
:10368000632002F071FD04460028ECD163220C494E
:103690000D480AF037F804460028E4D10A48092307
:1036A0004371052282714373FFF739FAFFF786FFF2
:1036B000064800F0B7F8D6E7788F00085C8F00085E
:1036C000B09B0008809698000C8F0008588F000867
:1036D0000230800803D001300238FCD100BF00BFA7
:1036E0007047EFF3108072B6704780F31088704710
:1036F000B0F1FF3F22D008B338B5C50E43011B1A05
:1037000065F10005AD0045EA93759B00181845F179
:103710000005ED0045EA5075C4004FF47A720023AD
:103720002046294643F048FF6FF47A73A34240F2E3
:10373000E733AB4101D26FF0010038BD704708B5E7
:1037400004F0E6FC002008BD034B0360034B0B6054
:1037500080231360704700BF38AE0008389C000813
:10376000034B0360034B0B604FF48063136070479F
:1037700008AF0008389E000870B582B004460023E8
:103780000193234B1B686BB1214B1B6843B1FFF7BF
:10379000A8FF054601F01CFD70B92846FFF7A5FFFC
:1037A00002B070BD1B4803F09FF918B9184B194AB5
:1037B0001A60E9E701BEE7E74FF47A7000FB04F412
:1037C0001548A0FB0434A409FFF7B9FF84420CD8C4
:1037D00012480028E1D1019BA34200D901BE019803
:1037E000FFF786FF01F0EAF9D7E7261A012301AABD
:1037F00031460748006804F017FC094B9842E8D1AD
:10380000002301AA31460248006804F00DFCE0E7FD
:10381000209C0008249C0008D34D621000000E0676
:10382000051A020448B110B5044600F09BF8206068
:1038300008B1002010BD0248FCE70248704700BFF5
:1038400001000E0605000E0610B582B018B3EFF3A6
:103850000584D4B10022019201AA006800F06AF93F
:10386000012802D078B1002412E0019B002BF9D08E
:103870004FF0E0234FF08052C3F8042DBFF34F8F79
:10388000BFF36F8FEEE7054C02E0006800F005F92A
:10389000204602B010BD024CFAE700BF02000E063F
:1038A00005000E06F8B12DE9F04182B00C46154630
:1038B0001F468046C9B10898FFF71AFF2668009096
:1038C0003B462A463146D8F8000000F059F82060FF
:1038D00000EA060236EA00030BD087F0010752B176
:1038E0004FB1002002E005487047044802B0BDE82F
:1038F000F0810020FAE70248F8E700BF05000E0655
:1039000000000E067047000008B50346084A10681C
:10391000084A121A9A4203DB0344054A136008BDA1
:1039200044F060F80C2303604FF0FF30F7E700BF6E
:103930001C23000800E80F0808B501F031F908BDA4
:1039400008B501F0D7F908BD1AB9084206D11046EA
:10395000704731EA000303D0002070470120704710
:103960000120704738B5202000F012FB044628B132
:10397000002540F8045B00F0E7F82577204638BDC5
:103980002DE9F8430D4617461E46DDF82080814696
:10399000002836D015F07F4F08D04FF03F0383F357
:1039A0001188BFF36F8FBFF34F8F01BE45B94FF042
:1039B0003F0383F31188BFF36F8FBFF34F8F01BEB7
:1039C00001F02AFC58B9B8F1000F08D04FF03F03BE
:1039D00083F31188BFF36F8FBFF34F8F01BE01F0E8
:1039E000DFF8D9F80040324629462046FFF7ACFF01
:1039F00088B11FB324EA0503C9F800304FF000086E
:103A00001EE04FF03F0383F31188BFF36F8FBFF3C6
:103A10004F8F01BEBEE7B8F1000F11D05FB9002192
:103A20000EB141F080614246294309F1040001F0E2
:103A30009DFA002404E04FF08071F1E74FF0000898
:103A400001F058F9B8F1000F12D048B94FF0E02357
:103A50004FF08052C3F8042DBFF34F8FBFF36F8F29
:103A600001F034FC044610F0007F04D024F07F44C1
:103A70002046BDE8F88300F02DF9D9F80040324621
:103A800029462046FFF760FF20B11FB124EA050553
:103A9000C9F8005000F040F9E8E7F8B50D460446D3
:103AA000A8B115F07F4F08D04FF03F0383F3118882
:103AB000BFF36F8FBFF34F8F01BE04F10C0601F00F
:103AC0006FF8206923682B432360002714E04FF030
:103AD0003F0383F31188BFF36F8FBFF34F8F01BE96
:103AE000DFE7216832EA010105D111E0216841F0E8
:103AF000007101F0CDFA2846B0420ED04568036847
:103B000023F07F4213F0806FEBD121681142F2D095
:103B100013F0807FEAD01743E8E7236823EA07031E
:103B2000236001F0E7F82068F8BD08B5FFF7B5FF9E
:103B300008BD000008B513460A460146014801F0D9
:103B400005FE08BD2B3B001000F1080343604FF059
:103B5000FF328260C360036100230360704700236B
:103B60000361704743684B609A688A60516099604E
:103B70000861036801330360704730B40D68B5F124
:103B8000FF3F11D000F108031C465B681A68AA4287
:103B9000FAD963684B6099608C6061600861036862
:103BA0000133036030BC70470469F2E70369416880
:103BB00082688A60416851605A68824206D0002259
:103BC00002611A68013A1A601868704782685A6080
:103BD000F5E7000082B0002301930D4B1B68B3F1A1
:103BE000FF3F08D04FF03F0383F31188BFF36F8F7F
:103BF000BFF34F8F01BE4FF03F0383F31188BFF334
:103C00006F8FBFF34F8F019B002BFCD002B070472A
:103C10002023000808480068006880F308884FF0F7
:103C2000000080F3148862B661B6BFF34F8FBFF314
:103C30006F8F00DF00BF000008ED00E0DFF80C0030
:103C4000016841F4700101607047000088ED00E0F8
:103C500008B54FF03F0383F31188BFF36F8FBFF3B5
:103C60004F8F00F0C5FF28B14FF0E0234FF0805296
:103C7000C3F8042D002383F3118808BD4FF080732F
:103C800040F8043C21F0010140F8081C054B40F8C5
:103C90000C3C40F8202C6FF0020340F8243C4438E0
:103CA000704700BFD53B001000000000000000007E
:103CB000074B19680868B0E8F04F80F30988BFF334
:103CC0006F8F4FF0000080F311887047AFF30080D2
:103CD00030B000084FF03F0383F31188BFF36F8FBC
:103CE000BFF34F8F0B4A136801331360012B00D0D1
:103CF00070474FF0E023D3F8043D13F0FF0FF7D0E7
:103D00004FF03F0383F31188BFF36F8FBFF34F8FE3
:103D100001BEEDE720230008094B1B6843B94FF0B3
:103D20003F0383F31188BFF36F8FBFF34F8F01BE43
:103D3000034A1368013B13600BB983F31188704782
:103D40002023000800000000000000000000000028
:103D5000EFF30980BFF36F8F154B1A681EF0100F39
:103D600008BF20ED108A20E9F04F10602DE909000E
:103D70004FF03F0080F31188BFF34F8FBFF36F8F79
:103D800001F06CF84FF0000080F3118809BC19684D
:103D90000868B0E8F04F1EF0100F08BFB0EC108AB2
:103DA00080F30988BFF36F8F704700BFAFF30080C7
:103DB00030B000084FF0E022002313619361074BFD
:103DC0001B680749A1FB03139B09013B53610723B0
:103DD0001361044B9B68044ADA637047E4220008CD
:103DE000D34D621000ED00E0513C001030B583B0BF
:103DF0004FF0E023D3F8002D3E4B9A421AD04FF0FB
:103E0000E023D3F8002D3C4B9A421DD03B4B1A784F
:103E1000D2B20192FF221A701B78DBB28DF8033008
:103E20009DF8033003F03F03354A1370354B0722EA
:103E30001A601DE04FF03F0383F31188BFF36F8FCB
:103E4000BFF34F8F01BEDAE74FF03F0383F31188D2
:103E5000BFF36F8FBFF34F8F01BED7E7294A1368B7
:103E6000013B13609DF803305B00DBB28DF803303B
:103E70009DF8033013F0800FF0D1224B1B68042B08
:103E800008D04FF03F0383F31188BFF36F8FBFF368
:103E90004F8F01BE1B4A13681B02136003F4E063DB
:103EA0001360019BDBB2154A13704FF0E024D4F885
:103EB000203D43F47F03C4F8203DD4F8203D43F077
:103EC0007F43C4F8203DFFF775FF00250E4B1D60B2
:103ED000FFF7B4FED4F8343F43F04043C4F8343F16
:103EE000FFF798FE00F0BAFFFFF774FE284603B014
:103EF00030BD00BF71C20F4170C20F4100E400E04D
:103F0000D8AF0008DCAF000820230008EFF30583DA
:103F10000F2B0FD9114A9B5CDBB2114A12789A42DF
:103F200008D94FF03F0383F31188BFF36F8FBFF3BE
:103F30004F8F01BE4FF0E023D3F80C3D03F4E06354
:103F4000084A1268934208D94FF03F0383F311885F
:103F5000BFF36F8FBFF34F8F01BE7047F0E300E0F8
:103F6000D8AF0008DCAF00084FF03F0383F311889F
:103F7000BFF36F8FBFF34F8F01BEFEE74FF03F03DC
:103F800083F31188BFF36F8FBFF34F8F01BEFEE73E
:103F900010B5044600F004FE204643F05BFE0446E4
:103FA00000F0A8FE0CB1204610BDFFF7DDFFFAE7D8
:103FB00048B110B5044600F0F3FD204643F052FE30
:103FC00000F098FE10BD704710B50446FFF782FE62
:103FD000A26BE36B9A4204D00024FFF79DFE2046BB
:103FE00010BD0124F9E710B50446FFF773FEA36B7B
:103FF00023B90124FFF790FE204610BD0024F9E705
:1040000070B504461546866B026C5AB903681BB13D
:1040100000200136A66370BD806801F00DF9002311
:10402000A360F6E76DB9406843F034FE226C636824
:1040300013446360A268934219D3236863602846DF
:10404000E7E7C06843F026FE226C5142E3689B1A02
:10405000E3602268934202D2A3680B44E360022D1E
:1040600001D00020D5E726B1013E0020D1E7284647
:10407000CFE70020CDE70346026C6AB110B50846D1
:10408000D9681144D9609C68A14201D31968D960EC
:10409000D96843F0FFFD10BD704738B50546FFF7FE
:1040A00019FE95F8454064B201E0013C64B2002C71
:1040B0000ADD6B6A43B105F1240000F0A1FF00287E
:1040C000F3D001F07FF8F0E7FF2385F84530FFF7E4
:1040D00023FEFFF7FFFD95F8444064B201E0013C88
:1040E00064B2002C0ADD2B6943B105F1100000F029
:1040F00087FF0028F3D001F065F8F0E7FF2385F88B
:104100004430FFF709FE38BD38B50D460446D0B13E
:10411000FFF7E0FD2368E26B216C01FB0230A06039
:104120000020A0636360013A02FB0133E360FF23D8
:1041300084F8443084F8453005BB23696BB9FFF738
:10414000EBFD012038BD4FF03F0383F31188BFF32F
:104150006F8FBFF34F8F01BEDAE704F1100000F05C
:104160004FFF0028EBD04FF0E0234FF08052C3F810
:10417000042DBFF34F8FBFF36F8FE0E704F1100002
:10418000FFF7E2FC04F12400FFF7DEFCD7E738B5C7
:104190001D46049C0B4649B92460E0632364012159
:1041A0002046FFF7B1FF84F84C5038BD2260F4E799
:1041B00010B584B01C46844640B94FF03F0383F3EA
:1041C0001188BFF36F8FBFF34F8F01BE3CB34AB16D
:1041D00041B94FF03F0383F31188BFF36F8FBFF3F3
:1041E0004F8F01BE2AB350230393039B502B08D05B
:1041F0004FF03F0383F31188BFF36F8FBFF34F8FEF
:1042000001BE039B44B1012384F8463000949DF81D
:1042100018306046FFF7BBFF204604B010BD4FF0DA
:104220003F0383F31188BFF36F8FBFF34F8F01BE3E
:10423000CDE70029D7D04FF03F0383F31188BFF3B8
:104240006F8FBFF34F8F01BECDE7F0B585B00F463E
:1042500001921D46044690B1DFB1022D26D000F038
:10426000DBFF50B9019B43B14FF03F0383F311884B
:10427000BFF36F8FBFF34F8F01BE002661E04FF099
:104280003F0383F31188BFF36F8FBFF34F8F01BEDE
:10429000E2E7236C002BE0D04FF03F0383F311885B
:1042A000BFF36F8FBFF34F8F01BED6E7E36B012BD8
:1042B000D5D04FF03F0383F31188BFF36F8FBFF367
:1042C0004F8F01BECBE72A4639462046FFF798FEBE
:1042D000636A7BB948B14FF0E0234FF08052C3F8D6
:1042E000042DBFF34F8FBFF36F8FFFF715FD012034
:1042F00005B0F0BD04F1240000F082FE0028F4D0E7
:104300004FF0E0234FF08052C3F8042DBFF34F8FDE
:10431000BFF36F8FE9E7FFF7FFFC0020E8E702A893
:1043200000F0FEFE012619E0002384F8443021E06D
:10433000002384F8453023E02046FFF7AEFE00F06E
:10434000D9FCFFF7C7FCA26BE36B9A42BBD3022DEB
:10435000B9D0019B002BDED0002EE0D0FFF7DCFCB3
:1043600000F01EFCFFF7B6FC94F8440040B2B0F138
:10437000FF3FD9D094F8450040B2B0F1FF3FD7D00D
:10438000FFF7CAFC01A902A800F0D6FED8B9204662
:10439000FFF71AFE0028CFD0019904F1100000F0B9
:1043A000CBFD2046FFF779FE00F0A4FC0028C8D121
:1043B0004FF0E0234FF08052C3F8042DBFF34F8F2E
:1043C000BFF36F8FBDE72046FFF767FE00F092FC5A
:1043D00000208DE72DE9F8430E4691461D46044620
:1043E000C8B116B3022D2DD0FFF790FDEFF3118861
:1043F0004FF03F0383F31188BFF36F8FBFF34F8FED
:10440000A26BE36B9A422AD3022D28D0002088F3B6
:104410001188BDE8F8834FF03F0383F31188BFF3A1
:104420006F8FBFF34F8F01BEDBE7236C002BD9D01A
:104430004FF03F0383F31188BFF36F8FBFF34F8FAC
:1044400001BECFE7E36B012BCED04FF03F0383F3E8
:104450001188BFF36F8FBFF34F8F01BEC4E794F88D
:1044600045707FB2A36B2A4631462046FFF7C8FD50
:10447000B7F1FF3F07D07F2F15D001377FB284F807
:1044800045700120C3E7636A0BB90120BFE704F15F
:10449000240000F0B5FD80B1B9F1000F0FD001206C
:1044A000C9F80000B3E74FF03F0383F31188BFF36F
:1044B0006F8FBFF34F8F01BEDFE70120A7E7012019
:1044C000A5E7F0B585B00F460192044680B1CFB1A3
:1044D00000F0A2FE50B9019B43B14FF03F0383F3BC
:1044E0001188BFF36F8FBFF34F8F01BE002655E0D9
:1044F0004FF03F0383F31188BFF36F8FBFF34F8FEC
:1045000001BEE4E7236C002BE2D04FF03F0383F3BE
:104510001188BFF36F8FBFF34F8F01BED8E73946C5
:104520002046FFF7A8FD013DA563236923B9FFF7E6
:10453000F3FB012005B0F0BD04F1100000F060FDB8
:104540000028F4D04FF0E0234FF08052C3F8042D40
:10455000BFF34F8FBFF36F8FE9E7FFF7DDFB00205D
:10456000E8E702A800F0DCFD012621E0002384F842
:10457000443029E0002384F845302BE02046FFF743
:104580008CFD00F0B7FB09E02046FFF786FD00F048
:10459000B1FB2046FFF727FD00283FD1FFF79AFB2C
:1045A000A56B002DBBD1019B002BD6D0002ED8D0FF
:1045B000FFF7B2FB00F0F4FAFFF78CFB94F84430FD
:1045C0005BB2B3F1FF3FD1D094F845305BB2B3F1A9
:1045D000FF3FCFD0FFF7A0FB01A902A800F0ACFD80
:1045E0000028D1D12046FFF7FEFC0028C6D0019953
:1045F00004F1240000F0A0FC2046FFF74EFD00F07F
:1046000079FB0028CAD14FF0E0234FF08052C3F865
:10461000042DBFF34F8FBFF36F8FBFE7002089E7F3
:104620000023092B0CD8074A52F833200AB1013372
:10463000F7E7044A42F8331002EBC30358607047AF
:10464000704700BFE0AF000870B504460D4616463F
:10465000FFF740FB94F844305BB2B3F1FF3F0DD05D
:1046600094F845305BB2B3F1FF3F0BD0FFF754FB3A
:10467000A36B5BB12046FFF710FD70BD002384F8EB
:104680004430EDE7002384F84530EFE73246294611
:1046900004F1240000F096FCECE700000A4B1B68D4
:1046A00003B10123094A1268D06A50B9084A126856
:1046B000012A07D833B9074B1868074B1B68C01A83
:1046C00070470020704700BFD8B0000830B0000825
:1046D0003CB0000808B1000854B10008074B1B6843
:1046E0001B6823B9064B4FF0FF321A607047034B2B
:1046F0001B68DB681A68024B1A60704734B0000808
:1047000008B100082DE9F04780460D461746994646
:10471000089EDDF824A00A9C9200A521206B43F09E
:10472000E1FA236B07F18042013A03EB820727F09D
:104730000707002D48D04FF0000CBCF10F0F0BD82D
:1047400015F80C2004EB0C0383F8342015F80C301A
:1047500013B10CF1010CF0E7002384F84330062E6E
:1047600000D90626E662E66400252565201DFFF7D0
:10477000F6F904F11800FFF7F2F92461C6F1070613
:10478000A66164626565A565E56525666566C4F82C
:10479000C85084F8CC506022294604F1680043F0E8
:1047A000A1FA0B4BE3660B4B23670B4B63674A463F
:1047B00041463846FFF762FA2060BAF1000F01D097
:1047C000CAF80040BDE8F087002384F83430C6E71B
:1047D000A0D10410C0D1041080D1041038B5002439
:1047E00007E004EB840293000E481844FFF7ACF98D
:1047F0000134062CF5D90C4D2846FFF7A5F90B4CD2
:104800002046FFF7A1F90A48FFF79EF90948FFF78C
:104810009BF90948FFF798F9084B1D60084B1C608D
:1048200038BD00BF3CB00008DCB00008F0B00008A4
:1048300014B1000840B100082CB1000834B00008E1
:1048400038B0000810B50446FFF744FA224A13684E
:1048500001331360214B1B685BB1214B1B686BB9A3
:104860001E4B1B68DA6AE36A9A4207D81B4B1C602E
:1048700004E01A4B1C601368012B29D0194A1368F5
:10488000013313606364E06A174B1B68984201D9D7
:10489000154B186000EB8000211D144B03EB8000CA
:1048A000FFF760F9FFF738FA0D4B1B687BB10B4B34
:1048B0001B68DA6AE36A9A4209D24FF0E0234FF0AC
:1048C0008052C3F8042DBFF34F8FBFF36F8F10BD1D
:1048D000FFF784FFD2E700BFC8B0000830B000087F
:1048E00028B10008D4B00008D8B000083CB00008D7
:1048F00010B50446683043F0F9FF94F8CD306BB141
:10490000012B12D0022B08D04FF03F0383F3118804
:10491000BFF36F8FBFF34F8F01BE10BD206BFFF74A
:1049200047FB2046FFF744FBF7E72046FFF740FB35
:10493000F3E700000F4B1B68D3B110B5FFF7CAF9BE
:104940000D4BDB68DC68201DFFF730F90B4A13685C
:10495000013B1360074A1368013B1360FFF7DCF962
:104960002046FFF7C5FF034B1B68002BE6D110BDA7
:10497000704700BFCCB0000840B10008C8B00008C4
:1049800070B504460D46174B1E68174B1868043067
:10499000FFF70CF9B4F1FF3F0DD03444124B1B6804
:1049A0005C60A64210D9114B18680F4B196804318E
:1049B000FFF7E3F870BD002DEFD00B4B1968043101
:1049C0000B48FFF7CFF8F5E70A4B1868064B196854
:1049D0000431FFF7D2F8084B1B68A342EAD9064B13
:1049E0001C60E7E754B1000830B0000838B0000898
:1049F0002CB1000834B0000808B1000870B586B0CA
:104A00000B9D0C9C15B35CB3D0260496049ED02E4F
:104A100008D04FF03F0686F31188BFF36F8FBFF3C6
:104A20004F8F01BE049E2CB325B32563022584F865
:104A3000CD5000250395029405AD01950A9D009582
:104A4000FFF760FE2046FFF7FDFE15E04FF03F0642
:104A500086F31188BFF36F8FBFF34F8F01BED2E78C
:104A60004FF03F0686F31188BFF36F8FBFF34F8F70
:104A700001BEC9E700230593059806B070BD2DE976
:104A8000F04385B00746884614461E469000FFF75F
:104A90007FFA00B38146D020FFF77AFA0546B0B11D
:104AA000C0F83090E5B1002385F8CD30039302952E
:104AB0000D9B01930C9B009333462246414638469A
:104AC000FFF720FE2846FFF7BDFE012005E048461F
:104AD000FFF76EFAE6E74FF0FF3005B0BDE8F08370
:104AE0004FF0FF30F9E7000010B588B000240594BE
:104AF000069407AA06A905A8FEF726FE059B0293C1
:104B0000069B019300942346079A1C491C48FFF713
:104B100075FF1C4B186050B100F050FC012808D004
:104B2000B0F1FF3F1FD0184B1B6808B010BD00202C
:104B3000F4E74FF03F0383F31188BFF36F8FBFF3A8
:104B40004F8F124B1B686833114A1360114B4FF0A3
:104B5000FF321A60104B01221A60104B00221A60BB
:104B6000FFF744F9DFE74FF03F0383F31188BFF30A
:104B70006F8FBFF34F8F01BED5E700BF24AE041087
:104B8000ED4D001004B10008EC8E000830B00008B4
:104B9000D086000808B1000828B1000854B1000808
:104BA000024A136801331360704700BFD0B0000899
:104BB000014B1868704700BF54B100080A4B1B68CE
:104BC00003440A4A1268934208D94FF03F0383F323
:104BD0001188BFF36F8FBFF34F8F01BE024A136876
:104BE00018441060704700BF54B1000808B10008B5
:104BF000F8B5354B1B68002B5ED1344B1E6801366F
:104C00001E60C6B9324B1B681B6843B14FF03F03AF
:104C100083F31188BFF36F8FBFF34F8F01BE2C4A10
:104C200011682C4B1868106019602B4A1368013307
:104C30001360FFF753FD294B1B68B34232D900279D
:104C4000274B1B68002B3CD001273AE00127204B63
:104C50001B681B6843B31E4B1B68DB68DC6863681A
:104C60009E4226D3251D2846FEF7A0FFA36A1BB14E
:104C700004F11800FEF79AFFE36A1A4A1268934299
:104C800001D9184A136003EB83039A00294616489A
:104C90001044FEF767FFE26A144B1B68DB6A9A4216
:104CA000D4D2D4E70027D2E70C4B4FF0FF321A6082
:104CB000C6E70A4A1360C3E70D4A1368013313605D
:104CC00000273846F8BD00BFD0B0000854B1000836
:104CD00034B0000838B000080CB1000808B1000872
:104CE00058B10008D8B000083CB0000830B0000847
:104CF00010B1000838B5354B1B6843B94FF03F037E
:104D000083F31188BFF36F8FBFF34F8F01BEFEF7A0
:104D1000E1FF2E4B1A68013A1A601B68002B4FD135
:104D20002B4B1B680BB900244BE00024294B1B685C
:104D30001BB3284BDB68DC6804F11800FEF736FF74
:104D4000251D2846FEF732FFE06A234B1B68984278
:104D500001D9214B186000EB800029461F4B03EB63
:104D60008000FEF7FFFEE26A1D4B1B68DB6A9A4279
:104D7000DCD31C4B01221A60D8E70CB1FFF7AEFC64
:104D8000194B1C6884B9174B1C68D4B14FF0E02351
:104D90004FF08052C3F8042DBFF34F8FBFF36F8FD6
:104DA00001240EE0013C07D0FFF722FF0028F9D0D4
:104DB0000C4B01221A60F5E70B4B00221A60E2E768
:104DC0000024FEF7A9FF204638BD00BFD0B0000880
:104DD000C8B0000814B10008D8B000083CB0000802
:104DE00030B0000858B1000810B1000808B50DE057
:104DF0004FF0E0234FF08052C3F8042DBFF34F8FE4
:104E0000BFF36F8FFFF74AFC012806D8FFF792FD2A
:104E10000F4B1B68012BEBD8F4E7FFF7C1FE0D4BDE
:104E20001A680D4B1B689A4208D24FF03F0383F378
:104E30001188BFF36F8FBFF34F8F01BEFFF72EFCBA
:104E4000012801D9FEF798FCFFF754FFDEE700BF09
:104E50003CB0000808B1000854B1000808B5304B58
:104E60001B681BB12F4B01221A6008BD2D4B00227D
:104E70001A602D4B1B681B6B1A68B2F1A53F03D15A
:104E80005A68B2F1A53F08D0274B18681968343129
:104E9000FFF774F8254B1B6809E09A68B2F1A53F4B
:104EA000F2D1DB68B3F1A53FEED1F3E7013B03EBB1
:104EB00083018A001E498A585AB9002BF6D14FF057
:104EC0003F0282F31188BFF36F8FBFF34F8F01BE94
:104ED000ECE703EB830082000A44506840685060AE
:104EE00003EB830C4FEA8C020832114488420FD046
:104EF00003EB830291000E4A0A445268D1680A4AC1
:104F000011600A490B60136868330A4A1360ACE702
:104F1000406862469100064A0A445060E8E700BFD4
:104F2000D0B0000858B1000830B00008D8B0000870
:104F30003CB00008D086000810B50C4648B10A4BBA
:104F400019681831FEF719FE01212046FFF718FDF8
:104F500010BD4FF03F0383F31188BFF36F8FBFF392
:104F60004F8F01BEEBE700BF30B0000810B514460C
:104F7000C8B1124B1B6843B94FF03F0383F311884C
:104F8000BFF36F8FBFF34F8F01BE0D4B1A6841F017
:104F90000041916119681831FEF7E4FD01212046B6
:104FA000FFF7EEFC10BD4FF03F0383F31188BFF312
:104FB0006F8FBFF34F8F01BEDBE700BFD0B000089B
:104FC00030B0000838B50D46144660B10B4B196877
:104FD0001831FEF7C7FD0CB14FF0FF3521462846CA
:104FE000FFF7CEFC38BD4FF03F0383F31188BFF3CA
:104FF0006F8FBFF34F8F01BEE8E700BF30B00008EE
:1050000038B5C368DC6834B304F118052846FEF7E8
:10501000CDFD194B1B6843BB251D2846FEF7C6FD79
:10502000E06A164B1B68984201D9144B186000EBDC
:1050300080002946124B03EB8000FEF793FDFFF73B
:105040004DFBE26A0F4B1B68DB6A9A4212D90120C2
:105050000D4B186038BD4FF03F0383F31188BFF349
:105060006F8FBFF34F8F01BECEE729460748FEF78B
:1050700079FDE6E70020EDE7D0B00008D8B00008E1
:105080003CB0000830B0000858B1000814B1000866
:1050900038B51E4B1B6843B94FF03F0383F31188AB
:1050A000BFF36F8FBFF34F8F01BE41F0004101602E
:1050B000C46804B3FEF77AFDFFF710FB251D2846F0
:1050C000FEF774FDE06A124B1B68984201D9104B41
:1050D000186000EB800029460E4B03EB8000FEF7C2
:1050E00041FDE26A0C4B1B68DB6A9A4202D90B4B0A
:1050F00001221A6038BD4FF03F0383F31188BFF3DC
:105100006F8FBFF34F8F01BED4E700BFD0B0000850
:10511000D8B000083CB0000830B0000858B1000812
:10512000034B1B680360034B1B684360704700BF61
:105130000CB1000854B10008F8B50C460546A8B1FA
:10514000F4B1FEF7C7FD1D4B19686B68C81A2268D9
:10515000B2F1FF3F2CD01A4E36682F68B74219D0F3
:105160008B4217D800232360012422E04FF03F0335
:1051700083F31188BFF36F8FBFF34F8F01BEDFE75B
:105180004FF03F0383F31188BFF36F8FBFF34F8F4F
:1051900001BED6E7824203D800232360012408E041
:1051A0005B1A134423602846FFF7BAFF002400E08F
:1051B0000024FEF7B1FD2046F8BD00BF54B1000841
:1051C0000CB10008014B01221A60704758B1000869
:1051D0000C4B1B6873B90C4B1B686BB90B4B1B68F2
:1051E00063B90B4B1A680B4B1B68013B9A4207D003
:1051F0000120704700207047002070470020704752
:105200000220704714B1000858B1000810B100081E
:105210002CB10008C8B00008054B1B6833B1054B22
:105220001B680BB1002070470220704701207047B7
:1052300028B10008D0B0000800283CD038B504469A
:105240001F4B1B68834208D04FF03F0383F3118844
:10525000BFF36F8FBFF34F8F01BE236D43B94FF084
:105260003F0383F31188BFF36F8FBFF34F8F01BEEE
:10527000236D013B2365E16AE26C91421DD00BB1C5
:10528000002038BD251D2846FEF790FCE06CE0624A
:10529000C0F10703A3610B4B1B68984201D9094B6E
:1052A000186000EB80002946074B03EB8000FEF7F7
:1052B00059FC0120E5E7002070470020E1E700BF2E
:1052C00030B00008D8B000083CB00008044A1368A9
:1052D00098691368DB6A1268C3F10703936170472A
:1052E00030B00008064B1A6813682BB9012303601D
:1052F00023B9D368186870470023F8E70020704787
:105300005CB1000808B54160006191420CD8D21A26
:1053100083699A4201D3012008BD011D094B186819
:10532000FEF72BFC0020F7E79A4201D2994206D201
:10533000011D054B1868FEF720FC0020ECE701205A
:10534000EAE700BF60B100085CB1000830B583B087
:10535000FEF7C0FC114B1B681BB1FEF7DDFC03B070
:1053600030BD0F4D2846FEF7EFFB0E4C2046FEF7F2
:10537000EBFB0D4B1D600D4B1C60002300930C4B91
:105380000C4A10210A20FEF713FF044B1860002876
:10539000E3D00949FFF744F9DFE700BF80B2000816
:1053A00004B2000818B200085CB1000860B100083F
:1053B00030B2000864B100082CAE041010B588B0FB
:1053C000FFF7C4FF134B1B68C3B100240594069478
:1053D00007AA06A905A8FEF7C3F9059B0293069B39
:1053E0000193032300932346079A0B490B48FFF7C9
:1053F00005FB0B4B186008B1012009E04FF03F039B
:1054000083F31188BFF36F8FBFF34F8F01BE00206E
:1054100008B010BD80B2000834AE0410315700103F
:1054200084B2000810B584B09C46044698B1174B6E
:10543000186848B300910192029405291DDCFFF71A
:10544000EBFE022811D000231A4669460F48006877
:10545000FEF7FBFE16E04FF03F0383F31188BFF326
:105460006F8FBFF34F8F01BEE1E70023069A6946B5
:1054700006480068FEF7E9FE04E00023624669463C
:10548000FEF7A8FF04B010BD0020FBE780B20008C3
:1054900070B582B01C4B1B681A686AB3DB681E6863
:1054A000DC68251D2846FEF781FB236A20469847C5
:1054B00094F8283013F0040FECD0A36933449E42D3
:1054C00007D26360246129460F4B1868FEF755FB2D
:1054D000E0E7002100910B4632462046FFF7A2FF8D
:1054E0000028D7D14FF03F0383F31188BFF36F8FAC
:1054F000BFF34F8F01BECDE7044A10680249086030
:10550000136002B070BD00BF5CB1000860B100085C
:1055100038B50546FFF74CFB0446074B1B68834232
:1055200005D800232B60044B1C60204638BDFFF7D4
:10553000AFFF01232B60F6E72CB2000870B582B0F4
:1055400006460D4618490968C968CC68201DFEF753
:105550002DFB94F828C01CF0040F08D12CF0010C8E
:1055600084F828C0236A2046984702B070BDA1691C
:1055700033462A4631442046FFF7C4FE0028F1D0C6
:10558000002100910B4632462046FFF74BFF0028D2
:10559000E8D14FF03F0383F31188BFF36F8FBFF360
:1055A0004F8F01BEDEE700BF5CB1000870B582B06E
:1055B00006460C46FFF7F4FA01A8FFF7A9FF019B86
:1055C00033BB05460CB9B04219D224B1124A126855
:1055D0001268DAB901242246711B104B1868FFF7D4
:1055E00033F8FFF787FBA8B94FF0E0234FF0805264
:1055F000C3F8042DBFF34F8FBFF36F8F0AE0FFF79F
:1056000079FB29463046FFF799FF03E01C46E2E7A5
:10561000FFF770FB02B070BD60B1000880B20008F7
:1056200010B588B002E0049B002B0FDA002204A919
:105630003E4B1868FEF745FF002875D0049B002BF1
:10564000F1DA07990698059B9847ECE7069C636991
:1056500013B1201DFEF7AAFA03A8FFF759FF049B18
:10566000092BE3D8DFE803F00505053138520505BD
:10567000313894F8283043F0010384F82830059B32
:10568000A169024619442046FFF73CFE0028CDD010
:10569000236A2046984794F8283013F0040FC5D0A9
:1056A000A269002100910B46059802442046FFF7AD
:1056B000B9FE0028BAD14FF03F0383F31188BFF33E
:1056C0006F8FBFF34F8F01BEB0E794F8283023F0FF
:1056D000010384F82830A9E794F8283043F0010347
:1056E00084F82830059BA36143B94FF03F0383F34F
:1056F0001188BFF36F8FBFF34F8F01BEA1690346BF
:10570000024601442046FFF7FDFD8FE794F828305C
:1057100013F0020F04D023F0010384F8283085E74A
:105720002046FEF745FC81E708B010BD80B20008B6
:1057300000B583B0FDF710FE01A8FFF7D3FD019976
:10574000FFF734FFFFF76CFFF6E7000010B584B0F9
:1057500014461A466FF001030093019002910394DE
:105760000023694602480068FEF734FE04B010BD0D
:1057700080B2000801BE0148704700BF0202020467
:1057800001BE0148704700BF0202020401BE014889
:10579000704700BF0202020401207047024B0B60F9
:1057A000092313600020704768230008024B0B6038
:1057B00002231360002070478C23000808B540784E
:1057C00006F020FD08BD000038B5054614468A42A3
:1057D00094BF00230123834209D080F001038A4251
:1057E0002CBF002101218B4201D04DB138BD07F003
:1057F00065FB0549A1FB0431890C06F067FEF4E75F
:10580000FDF7E6F9F2E700BF83DE1B4308B50B782E
:10581000092B04D00B2B07D001BE064803E0002063
:1058200005F0D4FE002008BD012005F0CFFE0020C9
:10583000F9E700BF0102020408B505F0D7FE012810
:1058400002D901BE002008BD4FF40040FBE708B5B7
:10585000FFF7F2FF08BD00002DE9F04104460A7889
:10586000A2F10D03DBB2012B04D90F2A2FD14E7800
:10587000013600E04E78002005F08AFF0746002040
:1058800005F054FF06F09EFC20FA07F8304606F0BB
:1058900099FC20FA07F763786BB1F1B2607805F0F4
:1058A00025FF054663789BB958B93A464146002022
:1058B000FFF78AFF0CE03A4641460120FFF784FFDC
:1058C000EBE7424639460020FFF77EFF00E0024D3D
:1058D0002846BDE8F08100BF01020204F8B5054684
:1058E0000139072935D8DFE801F0042634063434BD
:1058F0003424002600E00226002005F049FF074678
:10590000002005F013FF06F05DFC20FA07F720FAEF
:1059100006F46B788BB13146687805F019FF0646BE
:105920006B78BBB978B9224639460020FFF74CFFA7
:1059300010E00326E0E70126DEE722463946012093
:10594000FFF742FFE7E73A4621460020FFF73CFF1A
:1059500000E0014E3046F8BD0002020408B519B15E
:10596000407805F07DFE08BD407805F0A3FEFAE71B
:1059700008B5407805F08CFE08BD00002DE9F8431D
:1059800004460E461546DDF82080DDF824900127F8
:105990009F404FEA520C1CEB00004FF0000341F116
:1059A000000141F009FEC9F80000B84201D9C9F868
:1059B0000070B8F1000F19D0D9F80020002320465C
:1059C000314641F0F9FD0246294698F8000003F0FF
:1059D00025FD0028B8BF4042B8F1000F08D0D8F824
:1059E0000430834206D30020BDE8F8830020F3E7AB
:1059F0000020F9E70048F7E70002020408B590F834
:105A000000C01CF0020F06D14A1E41780CF00300C2
:105A100005F074FB08BD00234A1E41780CF003001A
:105A200005F0D0FBF6E770B584B004460D46164687
:105A300006F0F8FB0146237813F0020F0ED013F0A6
:105A4000010F24D01D2303AA019200962A46480183
:105A5000C90EFFF793FFE0B104B070BD13F0010F62
:105A600013D0102303AA019200962A46084600216B
:105A7000FFF784FF0028EFD12078039A013A61787C
:105A800000F0030005F03AFBE6E70823EAE71523F8
:105A9000D9E7039B5A09207803F01F03013A617884
:105AA00000F0030005F08EFBD6E708B503784178D7
:105AB00003F0030006F0CFFB08BD08B531B1037851
:105AC000417803F0030005F063FC08BD03784178DA
:105AD00003F0030005F09EFCF7E708B50378417872
:105AE00003F0030005F0C8FC08BD00000048704743
:105AF0002CB804102DE9F04182B007460D469046BF
:105B0000084603F0BDFCC6B2002401E00134E4B253
:105B1000B44213D205238DF804308DF805508DF86A
:105B2000064001A800F026FC03460028EED13D7097
:105B30007C700122BA70C7F8048000E0024B18465E
:105B400002B0BDE8F08100BF020D020430B583B0A1
:105B50000C46054678B184B105238DF804302378CE
:105B60008DF8053063788DF8063001A800F002FC4E
:105B700028B103B030BD01BEEDE701BEECE72268FD
:105B800063682A606B600123AB70F2E708B50346D7
:105B900048B11A78122A08D0032A0AD95A6812681A
:105BA0001846904708BD01BEF3E71846FFF7E0FE30
:105BB000F8E71846FFF791FFF4E710B5034648B140
:105BC0001878122808D003280AD95868446818465B
:105BD000A04710BD01BEF3E71846FFF7BFFEF8E788
:105BE0001846FFF76AFFF4E710B5044668B120468F
:105BF000FFF7CCFF98B12378122B08D0032B0AD9DA
:105C000063689B68204698470AE001BEEFE720469C
:105C1000FFF7D4FD04E02046FFF747FF00E0002037
:105C200010BD10B5034648B11878122808D00328D3
:105C30000AD95868C4681846A04710BD01BEF3E7EA
:105C40001846FFF79DFDF8E71846FFF7ECFEF4E76E
:105C500008B5034648B11A78122A08D0032A0AD98F
:105C60005A6812691846904708BD01BEF3E7184606
:105C7000FFF734FEF8E71846FFF7C0FEF4E710B56B
:105C800082B0044690B1A37803B901BE05238DF814
:105C9000043023788DF8053063788DF8063001A83C
:105CA00000F0ACFB0023A37002B010BD01BEEAE718
:105CB00008B5034648B11A78082A08D0092A00D046
:105CC00001BE184600F0B0F908BD01BEF3E7184662
:105CD00000F0AEF8F8E708B5034648B11878082890
:105CE00008D0092800D001BE184600F0E3F908BD2D
:105CF00001BEF3E7184600F0D7F8F8E708B5034609
:105D000048B11A78082A08D0092A00D001BE1846DE
:105D100000F0F0F908BD01BEF3E7184600F0F4F812
:105D2000F8E710B50446B8B12046FFF7C1FF00B14F
:105D300001BE02212046FFF7E1FF00B101BEB4F829
:105D4000781059B92378082B10D02378092B11D05B
:105D500094F87A3093B110BD01BEE5E702222046E7
:105D6000FFF7B9FF0028EDD001BEEBE7204600F0B9
:105D700021F8EAE7204600F009F9E9E7204600F0BB
:105D80003DFBE8E70023032B06D8054A52F8232001
:105D900022B90133DBB2F6E70020704701207047DB
:105DA00088B200088000C0B20844C0B20230C0B25D
:105DB0007047000010B50446443003F04DFCA17854
:105DC000164803F053FC63789B00DBB2A2781344BF
:105DD000DBB203F1340202F01F01530901228A40B1
:105DE00020330F4941F82320BFF34F8FBFF36F8F4C
:105DF00063789B00DAB2A3781344DBB2094A00212E
:105E000042F82310FFF7BEFF00B110BD064802F0B4
:105E1000B7F8064B00221A70F7E700BF00002A40CF
:105E200000E100E088B200089423000898B200085E
:105E3000054B9B68DBB2817801228A401A4214BF6D
:105E400001200020704700BF00002A4038B5022919
:105E500022D0082920D0012914D001BE19E0002346
:105E60001D430134E4B2032C0FD875B90C4B53F821
:105E700024000028F3D0FFF7DBFF08B10123EFE790
:105E80000023EDE700242546EDE785F00105054BED
:105E90001D70044B187838BD024B00221A70F8E7C9
:105EA00088B2000898B20008022A27D810B50C461C
:105EB0008378032B00D901BE114910331B02CA5845
:105EC00022F00042CA50436C23F0C003436443F005
:105ED000800343648378032B00D901BE0849103343
:105EE0001B02CA5842F00042CA5081784078FFF73E
:105EF00059FF0146204600F091FC10BD0148704753
:105F000000002A400106020402291ED88378032BD0
:105F100000D901BE0E4910331B02CA5822F00042BC
:105F2000CA50436C23F03003436443F030034364AE
:105F30008378032B00D901BE054910331B02CA58D0
:105F400042F00042CA50002070470248704700BF2C
:105F500000002A40010602040023392B06D8054A16
:105F600052F8232022B90133DBB2F6E70020704754
:105F7000012070479CB20008C0EBC00300EB830017
:105F800051FA80F0C0B20630C0B2704710B5044676
:105F9000443003F013FB63784BBB1D48A17803F03A
:105FA00019FB627812B9A3781C2B22D9012A22D0BE
:105FB00001BE40F2FF3303F01F015B0901228A405A
:105FC0002033144941F82320BFF34F8FBFF36F8F65
:105FD0006378C3EBC30203EB8203A27813440E4A37
:105FE000002142F82310FFF7B7FF48B110BD0B485E
:105FF000D4E73833DFE7A3781C2BD9D85533DAE759
:10600000074801F0BDFF074B00221A70EEE700BF02
:106010000000284000E100E09CB200080000294098
:10602000A423000884B3000843786BB9074B084ADF
:106030001268B2F85E100B448178B2F8602002FB5F
:1060400001335868C00F7047024BF0E7000028404A
:1060500050B500080000294038B5022922D008298F
:1060600020D0012914D001BE19E000231D430134C2
:10607000E4B2392C0FD875B90C4B53F82400002822
:10608000F3D0FFF7D1FF08B10123EFE70023EDE7DD
:1060900000242546EDE785F00105054B1D70044BF6
:1060A000187838BD024B00221A70F8E79CB200083D
:1060B00084B30008022A19D838B504460D46B0F852
:1060C000783003B901BE636C23F0C003636443F00E
:1060D00080036364A1786078FFF74EFF014628468D
:1060E00000F09CFB08B9A4F8780038BD0048704760
:1060F00001060204022908D8436C23F030034364EC
:1061000043F030034364002070470148704700BFEC
:106110000106020408281CD8DFE800F00923051E48
:106120000B0D0F1113000A20012917D0704708200A
:1061300070470C20F8E70D20F6E70E20F4E70F205B
:10614000F2E74B1EDBB2012B01D90820ECE70E2051
:10615000EAE701BE0820E7E70B20E5E700F00700CB
:1061600070470020E2E700002DE9F04387B00F46BA
:1061700016461D462F4B1B78FBB94FF0000C07E06D
:106180002D4C002344F82C300CF1010C5FFA8CFCF0
:10619000BCF10E0FF4D94FF0000C08E0264B03EBD6
:1061A0004C0300229A870CF1010C5FFA8CFCBCF1C5
:1061B000050FF3D91F4B01221A700B238DF80830FD
:1061C000C4088DF8094000F007088DF80A80029B8A
:1061D000ADF814301B0C8DF81630059BADF810305F
:1061E0001B0C8DF81230049BADF80C301B0C8DF895
:1061F0000E3003A800F0BEF8814618B1484607B03B
:10620000BDE8F08339463046FFF784FF02460E2C86
:106210000BD80A4B1B68986900EBC410002300934D
:106220002B46414603F0FCFAE8E7044B1B689869EB
:10623000F4E700BF85B30008588C000850B500088B
:1062400070B504280DD00D46114602463C4C34F87A
:1062500010E0441C1D2C07D8E4B2394E36F8144027
:1062600004E00D250520F0E740F231144FF0010C59
:106270000CFA02FC334A0CEA02023AB9AE44A3F823
:1062800000E01B88A34258D2002070BDC21E182A0D
:1062900032D8DFE802F00D313431310F25312931A8
:1062A000313131312B312D3131313131312F270025
:1062B000254A00E0254A1C80002AE2D0033818282D
:1062C00036D8DFE800F01E353835351E2F3531352C
:1062D000353535351E351E353535353535331E00EA
:1062E0001B4AE8E71B4AE6E71B4AE4E71B4AE2E7EA
:1062F0001B4AE0E71B4ADEE701BE0022DBE71A4A41
:10630000D9E70126B542BCD232F81500704411FA23
:1063100080F11980691CB142B3DA32F8114074443B
:10632000A4B2AEE70226EDE71026EBE70226E9E786
:1063300001BE0026E6E71A26E4E70C48A5E700BF01
:10634000FCB80410280B0A0C8CB80410C4B8041054
:10635000C8B80410F8B80410CCB80410ECB8041095
:10636000F0B80410F4B8041090B80410000D020442
:1063700000207047F0B583B004460027FDF7B1F95F
:1063800006460DF10603A27861782078FFF758FFE2
:10639000054668B9BDF80630C3F3C70203F007032A
:1063A0001449895C012202FA03F3194218BF174607
:1063B00005B9EFB92DB13046FDF797F9284603B07E
:1063C000F0BD0DF10603A27861782078FFF738FF61
:1063D00005460028EFD1BDF80630C3F3C70103F02E
:1063E0000703044801229A40435C13434354E2E705
:1063F000014DE0E788B30008010D020430B583B019
:106400000446FDF76EF905460DF10603A2786178A2
:106410002078FFF715FF024660B9BDF80630C3F3D8
:10642000C70003F00703074C01219940235C23EACE
:106430000103235402B101BE2846FDF756F903B00B
:1064400030BD00BF88B300082DE9F04F85B080460D
:106450000F46924601935D4B33F81020431C1D2BD1
:1064600012D8DBB2594931F81390012303FA08F32B
:10647000DFF884B103EA0B0BA9EB02091FFA89F9D3
:1064800000252E462C4617E040F23119EDE7012396
